:020000040800F2
:1000000000500020C5010008C9010008CB0100080C
:10001000E1010008E3010008F90100080000000008
:100020000000000000000000000000000F020008B7
:100030001102000800000000130200081502000869
:1000400029020008290200082902000829020008E4
:1000500029020008290200082902000829020008D4
:1000600029020008290200082902000829020008C4
:1000700029020008290200082902000829020008B4
:1000800029020008290200082902000829020008A4
:100090002902000829020008290200082902000894
:1000A0002902000829020008290200082902000884
:1000B0002902000829020008290200082902000874
:1000C0002902000829020008290200082902000864
:1000D0002902000829020008290200082902000854
:1000E0002902000829020008290200080000000077
:1000F0000000000000000000000000000000000000
:1001000000000000000000005FF808F107B500F0F3
:10011000ADF8214B214A22498B4226D30021214BA5
:10012000214A934226D3002600F0ACF8684601A984
:1001300000F094F81D4D1E4B5B1B9C10B4421CDC60
:1001400000261C4D1C4B5B1B9C10B4421ADCDDE9E5
:10015000000100F04DF90546184E194CA41BA410DF
:10016000002C14DC284600F075F852F8040B43F814
:10017000040BD1E743F8041BD3E755F8043B984739
:100180000136DBE755F8043B98470136DDE7013CD3
:1001900056F824309847E3E7000000209804000850
:1001A0000C0000200C000020100000205402000869
:1001B00054020008540200085402000854020008C7
:1001C0005402000814480047FEE71EF0040F0CBF5D
:1001D000EFF30880EFF309807146104A1047FEE7FD
:1001E000FEE71EF0040F0CBFEFF30880EFF3098069
:1001F00071460B4A1047FEE71EF0040F0CBFEFF3E9
:100200000880EFF309807146064A1047FEE7FEE7D3
:10021000FEE7FEE7704700000D010008DF0100085F
:0A022000F70100080D020008FEE7D8
:10022C0098040008000000200C000020980400082E
:10023C0000000000000000000C0000201000002056
:08024C000000000000000000AA
:1002540008B500F017F8000001230360014B0B60A0
:10026400704700BF0000002008B500F01DF8024AE6
:10027400024B9A6008BD00BF0000000800ED00E0DA
:1002840000F08AB8BFF34F8F0549064BCA6802F4E1
:10029400E0621343CB60BFF34F8F00BFFDE700BFA5
:1002A40000ED00E00400FA05374B82B01A6842F012
:1002B40001021A605968354A0A405A601A6822F0E5
:1002C400847222F480321A601A6822F480221A603E
:1002D4005A6822F4FE025A604FF41F029A60002208
:1002E400009201921A6842F480321A601A6802F489
:1002F40000320192009A01320092019A1AB9009ACE
:10030400B2F5A06FF2D11A6812F4003218BF0122BC
:100314000192019A012A30D11D4A116841F010015D
:100324001160116821F003011160116841F00201AC
:1003340011605A685A605A685A605A6842F4806276
:100344005A605A6822F47C125A605A6842F4E812DD
:100354005A601A6842F080721A601A689201FCD5D9
:100364005A6822F003025A605A6842F002025A6044
:100374005A6802F00C02082AFAD14FF00062054BC9
:100384009A6002B0704700BF001002400000FFF8FE
:100394000020024000ED00E00F4A536803F00C0314
:1003A400082B17D153685168C3F38343C80303F17F
:1003B40002030AD409494B4352680949C2F30312A0
:1003C4008A5CD340074A1360704751688903F1D4AB
:1003D4000549F0E7044BEFE70010024000093D0037
:1003E400880400080800002000127A0008B500F014
:1003F40021F80221084600F027F802230C49C1F82D
:1004040000380123C1F80C384FF4FA72D1F80C38D3
:1004140083F00103C1F80C384FF4FA7300BF013BB9
:100424009BB2002BFAD1013A92B2002AF4D1EBE745
:10043400000001404FF48032024B1A6001225A60DE
:10044400704700BF001002401F2917D8012809D0A7
:1004540002280DD090B90123094A8B405069034307
:1004640053617047064B8840DA691043D86170477E
:100474000123034A8B40906903439361704700BF93
:10048400001002400000000000000000010203040C
:040494000607080946
:0C0498000C0000200000000000A24A043C
:040000050800010DE1
:00000001FF
