:020000040800F2
:100000000050002021020008270200082B020008EF
:100010009D020008A1020008E9020008000000009B
:100020000000000000000000000000003103000894
:100030003503000800000000390300083D030008F4
:100040004D0300084D0300084D0300084D03000850
:100050004D0300084D030008C1070008DD07000834
:100060004D0300084D0300084D0300084D03000830
:100070004D0300084D0300084D0300084D03000820
:100080004D0300084D0300084D0300084D03000810
:100090004D0300084D0300084D0300084D03000800
:1000A0004D0300084D0300084D0300084D030008F0
:1000B0004D0300084D0300084D0300084D030008E0
:1000C0004D0300084D0300084D0300084D030008D0
:1000D0004D0300084D0300084D0300084D030008C0
:1000E0004D0300084D0300084D0300080000000008
:1000F0000000000000000000000000000000000000
:1001000000000000000000005FF808F100B583B0B7
:1001100000F0AEF9304B314A1360314A1360314B75
:10012000314A03E052F8041B43F8041B2F498B4269
:10013000F8D32A4B1A682E4B9A4200D0FEE7284B80
:100140001A682C4B9A42F9D1234B2B4A13602B4A45
:1001500013602B4B02E0002243F8042B294A934200
:10016000F9D3254B1B6813B9244B1B6803B1FEE779
:1001700000F08AF9694601A800F022F9224C234BCD
:10018000E41AA410002504E0204B53F825309847CA
:100190000135AC42F8DC1E4C1E4BE41AA4100025BD
:1001A00004E01C4B53F8253098470135AC42F8DC8D
:1001B0000099019800F0CEFA0546174C174BE41A47
:1001C000A41004E0013C154B53F824309847002C50
:1001D000F8DC284600F0D0F8BABADECA00000020E9
:1001E0006400002000000020F416000868000020D1
:1001F00078563412325476986800002004010020AA
:100200006800002008010020780300087803000837
:1002100078030008780300087803000878030008D2
:1002200008B5FFF773FF00BEFEE71EF0040F0CBF1A
:10023000EFF30880EFF309807146414A10472DE93A
:10024000F04182B004460D46124B5F6BD3F8388004
:100250009E6A1B6B13F0020F03D00E4BDB6A002B60
:100260000BDB0D4800F0B4F8009543463A463146A2
:10027000204600F00DF900BEFEE74BF6AB6100F042
:1002800081F90028EDD0034B4FF00042DA6202B052
:10029000BDE8F08100ED00E08416000800BEFEE736
:1002A0001EF0040F0CBFEFF30880EFF309807146D6
:1002B000244A10472DE9F04182B004460D46084B10
:1002C0005F6BD3F838809E6A064800F081F800958D
:1002D00043463A463146204600F0DAF800BEFEE7D3
:1002E00000ED00E0941600081EF0040F0CBFEFF3C1
:1002F0000880EFF309807146134A10472DE9F04159
:1003000082B004460D46084B5F6BD3F838809E6A76
:10031000064800F05DF8009543463A4631462046CF
:1003200000F0B6F800BEFEE700ED00E0A016000801
:1003300000BEFEE700BEFEE700BEFEE7704700001D
:100340003F020008B5020008FD02000800BEFEE7FB
:10035000F41600080000002068000020F4160008D1
:1003600000000000000000006800002008010020DC
:08037000000000000000000085
:10037800FEE7000008B503460C4A12685AB10B4A5A
:100388001068033323F003030344094A934206D851
:10039800064A136008BD054A06491160EFE700F0F8
:1003A80075FC0C2303604FF0FF30F3E76C0000206E
:1003B800004C00200801002001230360014B0B6062
:1003C800704700BF040000200FB400B583B004AB31
:1003D80053F8042B01938021074800F049FC0028BA
:1003E80004DC03B05DF804EB04B070470146024832
:1003F80000F035F8F5E700BF780000202DE9F0435C
:1004080085B004460F4643563BBB04252846214683
:10041800ABBE0546384605B0BDE8F08314F901CBFC
:1004280003F110026A4402F810CC0133AB42F5D351
:1004380010336B44002203F8102C4FF00408E946EF
:1004480040464946ABBE8046761B002EE2D0354674
:10045800102E28BF10250023E8E70E46F5E708B55B
:10046800FFF7CCFF08BD000008B500F0FDF8024A10
:10047800024B9A6008BD00BF0000000800ED00E0D4
:1004880008B500F019F908BDF8B504460D46174639
:100498001E462748FFF798FF21682648FFF794FF74
:1004A80061682548FFF790FFA1682448FFF78CFF93
:1004B800E1682348FFF788FF21692248FFF784FF96
:1004C80061692148FFF780FFA1692048FFF77CFF99
:1004D800E1691F48FFF778FF1E48FFF775FF2946B7
:1004E8001D48FFF771FF1D4CE16A1D48FFF76CFFBF
:1004F800216B1C48FFF768FFE16B1B48FFF764FF9F
:1005080015F0800F0AD115F4004F0CD11748FFF7EA
:100518005BFF06991648FFF757FFF8BD394615489F
:10052800FFF752FFEFE731461348FFF74DFFEDE7BE
:10053800681500087815000888150008981500083F
:10054800A8150008B8150008C8150008D81500082F
:10055800E8150008F81500080416000800ED00E08A
:10056800141600082416000834160008641600083B
:100578006C160008441600085416000883691A8887
:100588008A4201D0002070470268033A012A01D943
:1005980000207047023383610120704782B0002336
:1005A800019300932C4A136843F4803313602A4B59
:1005B8001B6803F400330093019B01330193009BF4
:1005C8001BB9019BB3F5A06FF1D1234B1B6813F442
:1005D800003F06D001230093009B012B04D002B0FA
:1005E800704700230093F7E71C4B1A6842F010028B
:1005F8001A601A6822F003021A601A6842F00202AE
:100608001A60A3F580535A685A605A685A605A6843
:1006180042F480625A605A6822F47C125A605A681E
:1006280042F4E8125A601A6842F080721A600A4B63
:100638001B6813F0007FFAD0074B5A6822F00302B8
:100648005A605A6842F002025A60034B5B6803F032
:100658000C03082BF9D1C2E7001002400020024029
:1006680008B5FFF79BFF08BD08B5104B1A6842F0A4
:1006780001021A6059680E4A0A405A601A6822F044
:10068800847222F480321A601A6822F480221A6076
:100698005A6822F4FE025A604FF41F029A60FFF76C
:1006A800DFFF044B4FF000629A6008BD0010024063
:1006B8000000FFF800ED00E01F4B5B6803F00C033F
:1006C800042B11D0082B13D0002B31D11B4B1C4A03
:1006D8001A60194B5B68C3F303131A4AD15C174AB3
:1006E8001368CB4013607047144B154A1A60F0E743
:1006F800114A53685268C3F38343023312F4803FAC
:1007080005D1114A02FB03F30C4A1360E1E70A4AD8
:10071800526812F4003F05D00B4A02FB03F3074A64
:100728001360D6E7064A02FB03F3044A1360D0E7D6
:10073800024B034A1A60CCE7001002400C0000206C
:1007480000127A00B016000800093D0008B500F054
:1007580035FA0221084600F03BFA0321022000F096
:1007680037FA0421022000F033FA00F0F7F84021AC
:10077800062000F0FBF83021072000F0F7F80620EB
:1007880000F0FCF8072000F0F9F80A4800F02CF80F
:10079800062000F007F9002207E000BF01339BB2F2
:1007A800B3F5FA7FF9D3013292B2B2F5FA7FF2D2F9
:1007B8000023F5E71000002010B5054C204600F096
:1007C80046F8072000F0EEF8204600F099F810BD32
:1007D8001000002008B5062000F0E4F8014800F0F9
:1007E80062F808BD1000002010B582B00023ADF8F3
:1007F80004308DF8063003789DF8042063F3010275
:100808008DF80420C3F38301D2B261F385028DF819
:1008180004209DF80520012161F303028DF80520CD
:10082800C3F38013D2B263F304128DF8052060B1CC
:1008380001AC204600F036F99DF80510C1F300110F
:10084800204600F05DF902B010BD0020FBE700B5BE
:1008580083B00023ADF804308DF8063003789DF896
:10086800042063F301028DF80420C3F38301D2B29C
:1008780061F385028DF804209DF80520012161F3BC
:1008880003028DF80520C3F38013D2B263F3041278
:100898008DF8052028B101A800F032F903B05DF801
:1008A80004FB0020FAE700B583B00023ADF804305C
:1008B8008DF8063003789DF8042063F301028DF863
:1008C8000420C3F38301D2B261F385028DF80420BA
:1008D8009DF80520012161F303028DF80520C3F37B
:1008E8008013D2B263F304128DF8052030B10021D1
:1008F80001A800F005F903B05DF804FB0020FAE751
:1009080000B583B00023ADF804308DF806300378C5
:100918009DF8042063F301028DF80420C3F38301DA
:10092800D2B261F385028DF804209DF805200121DB
:1009380061F303028DF80520C3F38013D2B263F389
:1009480004128DF8052030B101A800F009F9012042
:1009580003B05DF804FB0020FAE700004FF0E02345
:10096800014AC3F80C2D70470005FA053B2804D846
:1009780000F1604000F56440017070471F2806D8F8
:10098800012383404FF0E022C2F8003170473B2832
:1009980007D82038C0B2012383404FF0E022C2F8C4
:1009A800043170471F2806D8012383404FF0E02206
:1009B800C2F8003270473B2807D82038C0B201235C
:1009C80083404FF0E022C2F80432704707280ED85F
:1009D8000F4A136880004FF00F0C0CFA00FC23EA52
:1009E8000C03136001FA00F00343136070470F29EA
:1009F8000DD8074A5368083880004FF00F0C0CFADE
:100A080000FC23EA0C03536081400B43536070479A
:100A18000008014007280ED80F4A136880004FF0DD
:100A28000F0C0CFA00FC23EA0C03136001FA00F027
:100A38000343136070470F290DD8074A53680838D5
:100A480080004FF00F0C0CFA00FC23EA0C035360F3
:100A580081400B4353607047000C014007280ED8B3
:100A68000F4A136880004FF00F0C0CFA00FC23EAC1
:100A78000C03136001FA00F00343136070470F2959
:100A88000DD8074A5368083880004FF00F0C0CFA4D
:100A980000FC23EA0C03536081400B43536070470A
:100AA8000010014038B308B50246037803F0030389
:100AB800012B0CD0022B14D0FBB90078517801F02F
:100AC8000F01C0F38300FFF781FF012008BD007804
:100AD800517801F00F01C0F38300FFF79BFF01205D
:100AE800F4E70078517801F00F01C0F38300FFF7B5
:100AF800B5FF0120EAE7002070470020E6E7000084
:100B0800024600B3037803F00303012B04D0022B41
:100B180004D0D3B90F4802E00F4800E00F4801297C
:100B280009D0A1B91378C3F38303012101FA03F3B0
:100B38004361084670471278C2F383020123934049
:100B48000361084670470020704700207047012065
:100B5800704700BF00080140000C01400010014030
:100B680010B4037803F00303012B0DD0022B15D02A
:100B780043B90F4CE3680178C1F3830101228A402D
:100B88005340E36010BC70470A4CE3680178C1F336
:100B9800830101228A405340E360F3E7064CE3688F
:100BA8000178C1F3830101228A405340E360E9E7F9
:100BB80000080140000C014000100140034B4FF4B5
:100BC80080321A6001225A60704700BF001002404C
:100BD8001F291BD801280CD0022811D0B0B900F168
:100BE800804000F50430436901228A401343436181
:100BF80070470748C36901228A401343C36170479D
:100C08000348836901228A4013438361704700BF08
:100C18000010024030B51446002C05461A469BB019
:100C280005DA8B2303604FF0FF301BB030BD4FF463
:100C38000273ADF80C304FF0000319930CBF234634
:100C480004F1FF33029305934FF6FF73009104916B
:100C5800ADF80E3069461E9B00F07EF8431CBCBF01
:100C68008B232B60002CE0D00022009B1A70DCE75D
:100C780007B5009313460A46014603480068FFF784
:100C8800C9FF03B05DF804FB14000020014B18688D
:100C9800704700BF140000202DE9F0471F468E68FA
:100CA8008246BE420C469046334653D8B1F90C00F2
:100CB80010F4906F2BD065692368096905EB450529
:100CC800A3EB010905EBD5757B1C6D104B44AB42BA
:100CD8002A4684BF1D462A46430527D51146504655
:100CE80000F06AFB064658B34A46216900F0EBFA61
:100CF800A38923F4906343F08003A38126614E44C3
:100D080026603B463E466561A5EB0905A5601F4682
:100D18003A464146206800F0AFFA0020A3689B1BC2
:100D2800A36023683B442360BDE8F087504600F089
:100D3800CFFB06460028E1D15046216900F0D2FADF
:100D48000C23CAF80030A3894FF0FF3043F040036A
:100D5800A381E9E73E46DBE72DE9F0471F468B898B
:100D680006461B060D4614469CB010D50B6973B990
:100D7800402100F021FB2860286130B90C23336042
:100D88004FF0FF301CB0BDE8F08740236B610023B3
:100D9800099320238DF8293030234FF00108039759
:100DA800644F8DF82A302346994613F8012B0AB16F
:100DB800252AF9D1B9EB040A0BD053462246294615
:100DC8003046FFF769FF013000F0A480099A5244C9
:100DD800099299F80030002B00F09C8000234FF016
:100DE800FF32CDE9052309F10109049307938DF832
:100DF80053301A934C46052214F8011B4D4800F055
:100E080054FA049BD0B9D80644BF20228DF8532049
:100E1800190744BF2B228DF8532099F800202A2A5D
:100E280013D04C4600204FF00A0C079A214611F8BF
:100E3800013B303B092B49D968B913E0C01B08FABC
:100E480000F01843A1460490D4E7039A111D1268D4
:100E58000391002A01DB079204E0524243F00203A7
:100E68000792049323782E2B0AD163782A2B32D148
:100E7800039B02341A1D1B68039243EAE37305932C
:100E8800DFF8B49003224846217800F00EFA38B112
:100E98004022049BA0EB09008240134301340493D1
:100EA80014F8011B062225488DF8281000F0FDF9DA
:100EB800002835D0224818BB039B073323F00703CB
:100EC80008330393099B034409936CE70C460120FC
:100ED8000CFB0232AAE700234FF00A0C1946013432
:100EE8000593204610F8012B303A092A03D9002B24
:100EF800C6D00591C4E7044601230CFB0121F0E7A5
:100F080003AB00932A4630460E4B04A9AFF300808A
:100F1800421CD7D1AB895B063FF532AF099831E760
:100F280003AB00932A463046064B04A900F07EF82E
:100F3800EEE700BFC0160008C6160008CA1600086B
:100F480000000000A10C00082DE9F047164698465D
:100F58008A680B6907469342B8BF1346336091F815
:100F680043200C46DDF820900AB101333360236832
:100F7800990642BF336802333360256815F00605C9
:100F880006D104F1190AE36832689B1AAB422BDCDC
:100F980094F843302268003B18BF0123920630D4EE
:100FA8004146384604F14302C847013023D023683C
:100FB800226903F00603042B14BF002533684FF0A1
:100FC800000608BFE56804F11A0408BFED1A54F8D2
:100FD800123C08BF25EAE5759342C4BF9B1AED1879
:100FE800B5421AD1002008E001235246414638464E
:100FF800C847013003D14FF0FF30BDE8F087013515
:10100800C1E73020E11881F843005A1C94F84510D4
:101018002244023382F84310C2E7012322464146A4
:101028003846C8470130E6D00136D9E72DE9F04304
:101038000D7E85B0782D904607460C4699460C9E45
:1010480001F1430207D8622D0AD8002D00F0D7809D
:10105800582D00F0BC8004F1420684F842503BE071
:10106800A5F16303152BF6D801A151F823F000BFB1
:10107800D1100008E51000085F1000085F10000894
:101088005F1000085F100008E51000085F100008F6
:101098005F1000085F1000085F100008ED110008DD
:1010A8000F1100089F1100085F1000085F1000086A
:1010B8000F1200085F1000080F1100085F100008E9
:1010C8005F100008A711000833681A1D1B683260FA
:1010D80004F1420684F842300123A1E03368206815
:1010E800191D3160060601D51D6803E04506FBD5CC
:1010F800B3F90050002D03DA2D236D4284F84330F4
:101108000A235B4811E021683368080653F8045B3A
:1011180002D4490648BFADB23360237E54486F2BD2
:101128005CD10823002184F843106668002EA6606D
:1011380005DB21682E4321F00401216050D01646BA
:10114800B5FBF3F103FB115C10F80CC006F801CDF8
:10115800AC4663450D46F3D9082B0BD12368DB0752
:1011680008D5236961689942DEBF302306F8013C3F
:1011780006F1FF36921B2261434621463846CDF8D8
:10118800009003AAFFF7E0FE01304ED14FF0FF3088
:1011980005B0BDE8F083236843F020032360782579
:1011A800344884F845502368316813F0800F51F8AB
:1011B800045B03D113F0400F18BFADB23160D907FB
:1011C80044BF43F0200323601DB11023AAE7284839
:1011D800E7E7236823F020032360F6E70A23A1E763
:1011E8001646B9E733682568181D616930602E0610
:1011F8001B6801D5196002E06806FBD51980002339
:1012080016462361B8E7336800211A1D32601E684C
:101218006268304600F049F808B1801B6060636876
:101228002361002384F84330A6E732464146384616
:101238002369C8470130A9D023689B0713D4E06805
:10124800039B9842B8BF1846A2E70123324641469D
:101258003846C847013099D00135E36803995B1ACD
:10126800AB42F2DCEBE7002504F11906F5E700BF15
:10127800D1160008E2160008884210B501EB0204F6
:1012880002D98442234607D8431EA14207D011F849
:10129800012B03F8012FF8E70244824200D110BD68
:1012A80013F8011D02F8011DF7E7034610B5C9B28E
:1012B80002449342184601D1002003E00478013328
:1012C8008C42F6D110BD0A44914200F1FF3300D19F
:1012D800704710B511F8014B914203F8014FF9D14D
:1012E80010BD000038B50546002940D051F8043C2F
:1012F8000C1F002BB8BFE41800F0DEF81C4A136876
:1013080033B9636014602846BDE8384000F0DAB8A5
:10131800A34208D9206821188B4201BF19685B686D
:1013280009182160EDE71A465B680BB1A342FAD9A8
:1013380011685018A0420BD120680144501883420C
:101348001160E0D118685B68084410605360DAE700
:1013580002D90C232B60D6E7206821188B4201BFE5
:1013680019685B680918216063605460CBE738BD71
:10137800FC00002070B50F4E0C463168054611B9C7
:1013880000F0D4F830602146284600F0CFF8431C1E
:1013980003D14FF0FF34204670BDC41C24F0030471
:1013A800A042F8D0211A284600F0C0F80130F2D146
:1013B800EFE700BFF80000202DE9F843CD1C25F029
:1013C800030508350C2D38BF0C25002D064601DB1A
:1013D800A94204D90C2333600020BDE8F883DFF864
:1013E800D48000F069F8D8F800301C4644BB294680
:1013F8003046FFF7BFFF431C044658D1D8F80040D9
:101408002746002F43D1002C4BD02368394630465D
:1014180004EB030900F08AF8814542D1216830467F
:101428006D1A2946FFF7A6FF01303AD023682B44EE
:101438002360D8F800305A6862BBC8F800700FE023
:101448002268521B20D40B2A17D96119A3422560A0
:1014580018BF5960636808BFC8F8001062514B6034
:10146800304600F02FF804F10B00231D20F0070090
:10147800C21A1CBF1B1AA350AFE76268A3420CBF75
:10148800C8F800205A60EBE723466468AEE73C469C
:101498007F68B6E71A465B68A342FBD10023536016
:1014A800DEE70C233046336000F00CF894E7056063
:1014B800D6E700BFFC000020014800F047B800BF95
:1014C80000010020014800F042B800BF00010020E0
:1014D8002DE9F041074614460D4621B91146BDE8ED
:1014E800F041FFF769BF2AB9FFF7FCFE25462846F9
:1014F800BDE8F08100F02CF88442064602D8B4EB2F
:10150800500FF4D821463846FFF756FF804608B9F1
:101518004546ECE7B4422246294628BF3246FFF743
:10152800D2FE29463846FFF7DDFEF1E738B500233D
:10153800054D044608462B60FEF71CFF431C02D1EC
:101548002B6803B1236038BD7400002070477047D2
:1015580051F8043C181F002BBCBF0B58C01870472B
:10156800537461636B206672616D653A0A0000000E
:10157800205230203D2020253038580A0000000035
:10158800205231203D2020253038580A0000000024
:10159800205232203D2020253038580A0000000013
:1015A800205233203D2020253038580A0000000002
:1015B80020523132203D20253038580A00000000E2
:1015C800204C52203D2020253038580A00000000C9
:1015D800205043203D2020253038580A00000000C4
:1015E80020505352203D20253038580A0000000072
:1015F8004653522F4641523A0A00000020434653B0
:1016080052203D2020253038580A000020484653F3
:1016180052203D2020253038580A000020444653E7
:1016280052203D2020253038580A000020414653DA
:1016380052203D2020253038580A0000204D4D46C4
:101648004152203D20253038580A000020424641AA
:1016580052203D2020253038580A00004D69736318
:101668000A000000204C522F4558435F52455455FC
:10167800524E3D20253038580A0000005B48617200
:10168800644661756C745D0A000000005B42757306
:101698004661756C745D0A005B55736167654661E8
:1016A800756C745D0A000000000000000000000076
:1016B8000102030406070809232D302B2000686C5B
:1016C8004C0065666745464700303132333435365D
:1016D8003738394142434445460030313233343596
:0B16E8003637383961626364656600C4
:1016F40078563412700000200000000000A24A0452
:1017040014FFFFFF1800002000000000000000008C
:1017140068000000D000000000000000000000008D
:1017240000000000000000000000000000000000B5
:1017340000000000000000000000000000000000A5
:101744000000000000000000000000000000000095
:081754000000000032547698F9
:040000050800010DE1
:00000001FF
